:04000000FEEF7FF0A0
:10F87C0012001200120001C012F002C013F01200AC
:10F88C0001C016F002C017F0120001C014F002C043
:10F89C0015F012008BEC7CF0C5EC7CF064EC7CF089
:10F8AC00F0EC7CF012003901A3B75FEF7CF062EF53
:10F8BC007CF0010E63EF7CF0000E1200700E39012B
:10F8CC00D96F000EDB6F000EDD6F020EDF6F000EC6
:10F8DC00DE6F1200016E3901A3A977EF7CF079EF8E
:10F8EC007CF071EF7CF0600007F0EAFD120000EE96
:10F8FC0060F08C0EEE6AE806FDE11A6A196A186A65
:10F90C00000EF86E000124EF7DF0000E3901C06F7F
:10F91C00000EC16F000EC26F000EC36F000EC46FDD
:10F92C00000EC56F000EC66F000EC76F1200000EE2
:10F93C00086EBAEF7CF008500324D96E000E042038
:10F94C00DA6E08500124E16E000E0220E26EDE50E9
:10F95C00E618D8B4B4EF7CF0B6EF7CF0B9EF7CF0DD
:10F96C00000EC4EF7CF0082A0550085CD8A0C1EF4B
:10F97C007CF0C3EF7CF0A1EF7CF0010E1200000EC6
:10F98C00BA6E000EBB6E000EBC6EFE0EC26EC3686D
:10F99C00BF0EC46E7F0E3A01606F50694069000E55
:10F9AC00816F000E516F000E416F000E616F000EE3
:10F9BC00426F000E526F000E626F436953696369A8
:10F9CC00446954696469080E846F130E166F170E20
:10F9DC00E76F1200000E3D01EC6F000EED6F000E94
:10F9EC00EE6F000EEF6F000EF06F000EF16FB00EA9
:10F9FC00F26F800EF36F000EF46F190EF56F000EA0
:10FA0C00F66F000EF76F000EF86F000EF96F000E18
:10FA1C00FA6F7E0E016EF80E026E46EC7CF0800ED4
:10FA2C00016EF80E026E4BEC7CF07C0E016EF80E43
:10FA3C00026E41EC7CF0000E1A6E120050EC7CF061
:10FA4C00000E116E000E0001606F000E616F000E53
:10FA5C00626F000E646F000E636F000EA56F000ED8
:10FA6C00A46F1150D8A43DEF7DF03FEF7DF037EF40
:10FA7C007DF064EC7DF00009D8B447EF7DF049EFE0
:10FA8C007DF060EF7DF0FF0E70EC7CF0FF0E70EC03
:10FA9C007CF0000E70EC7CF0000E70EC7CF0000E34
:10FAAC0070EC7CF0000E70EC7CF0000E70EC7CF0D6
:10FABC0037EF7DF037EF7DF0FEEF7FF0A2EF7DF0BA
:10FACC0018C019F0AEEC7DF0186E1828D8A471EFA0
:10FADC007DF073EF7DF0A2EF7DF01928D8A479EFBB
:10FAEC007DF07BEF7DF0A2EF7DF0000E186E000E26
:10FAFC00196EA60E016E000E026E98EC7EF00009D7
:10FB0C00D8B48BEF7DF08DEF7DF0A2EF7DF0A60EDB
:10FB1C00096E000E0A6E600E0B6E000E0C6EFCEC85
:10FB2C007DF00009D8B49DEF7DF09FEF7DF064EF80
:10FB3C007DF0010EADEF7DF059EC7CF00009D8A4FE
:10FB4C00AAEF7DF0ACEF7DF066EF7DF0000E1200B9
:10FB5C003901A3A7B4EF7DF0B6EF7DF0AEEF7DF0E9
:10FB6C00000E1A6E3D01F9A7BEEF7DF0C0EF7DF0DF
:10FB7C00CEEF7DF01A8202D8CEEF7DF00500FA6E42
:10FB8C001650FD6E1750FE6EF850FF6EFA501200B4
:10FB9C003D01F9A3D4EF7DF0D6EF7DF0E4EF7DF0DD
:10FBAC001A8402D8E4EF7DF00500FA6E1450FD6E55
:10FBBC001550FE6EF850FF6EFA5012001A50D8B461
:10FBCC00EAEF7DF0ECEF7DF0F9EF7DF002D8F9EF84
:10FBDC007DF00500FA6E1250FD6E1350FE6EF8505B
:10FBEC00FF6EFA5012003D01E851120060002FF038
:10FBFC00D9FF600033F0DAFF600027F0E1FF60000E
:10FC0C002BF0E2FFDE50E618D8B40FEF7EF011EFC8
:10FC1C007EF014EF7EF0000E97EF7EF020EE01F0F8
:10FC2C000B50D9260C50DA2210EE01F00950E126C7
:10FC3C000A50E222DE50E618D8B427EF7EF029EF06
:10FC4C007EF02BEF7EF011EF7EF020EE02F00B50E9
:10FC5C00D9260C50DA2210EE02F00950E1260A5097
:10FC6C00E222DE50E618D8B43EEF7EF040EF7EF094
:10FC7C0042EF7EF011EF7EF020EE03F00B50D92610
:10FC8C000C50DA2210EE03F00950E1260A50E22261
:10FC9C00DE50E61809E1DE50E618D8B458EF7EF0D5
:10FCAC005AEF7EF05CEF7EF011EF7EF0050E09242A
:10FCBC00016E000E0A20026E050E0B24036E000E60
:10FCCC000C20046E20EE01F00950D9260A50DA22DD
:10FCDC00DF50056E9DEC7CF00009D8A478EF7EF027
:10FCEC007AEF7EF07CEF7EF011EF7EF020EE44F0A8
:10FCFC000B50D9260C50DA2210EE44F00950E126B4
:10FD0C000A50E222DE50E61809E1DE50E618D8B4BB
:10FD1C0092EF7EF094EF7EF096EF7EF011EF7EF096
:10FD2C00010E120059EC7CF00009D8B4A0EF7EF063
:10FD3C00A2EF7EF098EF7EF0AEEC7DF00101CF6F7C
:10FD4C00CFC103F0060E046ED8900332042EAAEF36
:10FD5C007EF00350006F016BCFC103F03F0E031612
:10FD6C000350026F036B59EC7CF00009D8B4C1EF5F
:10FD7C007EF0C3EF7EF0B9EF7EF0AEEC7DF00101CA
:10FD8C00D06FD0C103F0033A0F0E03160350046F6B
:10FD9C00056BD0C103F00F0E03160350066F076BF3
:10FDAC000651076F066B59EC7CF00009D8B4E1EFF3
:10FDBC007EF0E3EF7EF0D9EF7EF0AEEC7DF001014A
:10FDCC00CC6FCC510627000E0723000ED16F15EF18
:10FDDC007FF059EC7CF00009D8B4F7EF7EF0F9EF26
:10FDEC007EF015EF7FF0AEEC7DF0036E046A01013E
:10FDFC00D151056E066AD89005360636080E0526D2
:10FE0C00000E0622000E0524D96E010E0620DA6EB5
:10FE1C0060000FF0DEFF600013F0DDFFD12B01015D
:10FE2C00D151036E046A0251035C03510458D8A0EB
:10FE3C0022EF7FF024EF7FF0EFEF7EF059EC7CF0B7
:10FE4C000009D8B42CEF7FF02EEF7FF024EF7FF079
:10FE5C00AEEC7DF00101CE6FCD6B59EC7CF000095E
:10FE6C00D8B43BEF7FF03DEF7FF033EF7FF0AEEC9B
:10FE7C007DF0036E03500101CD27000ECE23000E42
:10FE8C00C86F000EC96F000ECA6F000ECB6F000E4C
:10FE9C00D26F68EF7FF0D251020D000EF324D96EB1
:10FEAC00010EF420DA6E6F0078FF03F06F0074FF20
:10FEBC0004F00350C8270450C923000ECA23000EB7
:10FECC00CB23D22B040E0225036E000E0321046EED
:10FEDC00D251056E066A0350055C04500658D8A032
:10FEEC007AEF7FF07CEF7FF051EF7FF0CD51036E16
:10FEFC00CE51046E056A066AC85103180FE1C95148
:10FF0C0004180CE1CA51051809E1CB510618D8B4F4
:10FF1C0092EF7FF094EF7FF097EF7FF0000EFDEF04
:10FF2C007FF0600007F0D9FF60000BF0DAFF600093
:10FF3C0003F4DFFF20EE01F00150D9260250DA2243
:10FF4C0060000BF4DFFF20EE02F00150D9260250C6
:10FF5C00DA22600013F4DFFF20EE03F00150D92603
:10FF6C000250DA2260001BF4DEFF60001FF4DDFF9C
:10FF7C0020EE44F00150D9260250DA22600037F707
:10FF8C00DEFF60003BF7DDFF000ED36FEEEF7FF07E
:10FF9C00D351036E046AD89003360436080E032638
:10FFAC00000E0422000E0324D96E010E0420DA6E1A
:10FFBC00D3510124056E000E0220066E050E052499
:10FFCC00E16E000E0620E26E6F007FFFE7FFD32B81
:10FFDC00D351036E046A0251035C03510458D8A038
:10FFEC00FAEF7FF0FCEF7FF0CEEF7FF0010E120006
:04FFFC007DEF7CF029
:020000040020DA
:10000000FF0FFF0FFF0FFF0FFF0FFF0FFF0FFF0F80
:020000040030CA
:0A000000FCFFF7FF9FFFFFFFFFFF6B
:00000001FF
