:04000000FEEF3FF0E0
:0400080007EF3DF0D1
:02001800FF00E7
:1079D20012003B6A3A6A080ED56E000ED66E000E91
:1079E200D76E000EF86E000132EF3DF002D804EFC0
:1079F2003DF00500FA6E3A50FD6E3B50FE6EF850B7
:107A0200FF6EFA5012003901A59D1200390195ADA1
:107A12000DEF3DF00FEF3DF018EF3DF0A5AD14EF87
:107A22003DF016EF3DF018EF3DF0F7EC3CF01100A1
:107A3200056E600017F0F1FE3E01F88FF89DF881A7
:107A4200F8B126EF3DF028EF3DF021EF3DF0F05187
:107A5200046E036AEF510324016E000E0420026ECD
:107A62001200000E2C6E870E2D6E030E2E6E000E6F
:107A72002F6E000E306E020E316E000E1E6ED10E93
:107A82001F6E000E206E000E216E000E226E010E81
:107A9200236E010E246E000E1B6E100E19EC3DF0CB
:107AA20001C01CF002C01DF01D50326E1CC033F02C
:107AB2002C0E136E000E146E53EC3EF01B50D8A425
:107AC20065EF3DF067EF3DF07BEF3DF0000ECCB689
:107AD200010E1A6E1A50D8B471EF3DF073EF3DF0FB
:107AE2007BEF3DF01E0E136E000E146E53EC3EF053
:107AF200010E1B6EA30E196E550EE82EFED7192E1F
:107B0200FCD700F04EEF3DF0FEEF3FF0020E0518FD
:107B1200D8A48EEF3DF090EF3DF01EEF3EF06000F6
:107B220023F0D9FF600027F0DAFF600007F0DFFFE3
:107B320001C00EF002C00FF003C010F004C011F03B
:107B42000FC00EF010C00FF011C010F0116A0EC07D
:107B520001F00FC002F010C003F011C004F0600089
:107B62001BF0D9FF60001FF0DAFF600007F0DFFFB3
:107B720001C00EF002C00FF003C010F004C011F0FB
:107B82000FC00EF010C00FF011C010F0116A0EC03D
:107B920001F00FC002F010C003F011C004F0015058
:107BA200030B126E01C00EF002C00FF003C010F002
:107BB20004C011F0030ED8900E360F36103611366F
:107BC200E82EDCEF3DF00EC001F00FC002F010C055
:107BD20003F011C004F00150E00B1224126E125097
:107BE200080F126E1250EB0B600033F0D9FF6000E9
:107BF20037F0DAFFDF6E01C00EF002C00FF003C0F3
:107C020010F004C011F00FC00EF010C00FF011C040
:107C120010F0116A0EC001F00FC002F010C003F0A4
:107C220011C004F060002BF0D9FF60002FF0DAFFE2
:107C3200600007F0DFFF52EF3EF060001BF0D9FF5B
:107C420060001FF0DAFF000EDF6E600023F0D9FF44
:107C5200600027F0DAFF000EDF6E01C00EF002C0F6
:107C62000FF003C010F004C011F0050ED8900E36CC
:107C72000F3610361136E82E37EF3EF00EC001F007
:107C82000FC002F010C003F011C004F0600033F026
:107C9200D9FF600037F0DAFF600007F0DFFFFCEF8A
:107CA2003DF01200000E156E000E166E000E176EDD
:107CB200000E186E3701E0B761EF3EF063EF3EF061
:107CC200E7EF3EF020EE01F01350D9261450DA22ED
:107CD2006F0078FF01F06F0078FF02F06F0078FF0D
:107CE20003F06F0078FF04F060004FF0D9FF6000EE
:107CF20053F0DAFFDF50056E150E066E000E076EAA
:107D0200160E086E000E096E170E0A6E000E0B6E2E
:107D1200180E0C6E000E0D6E87EC3DF0600057F0F1
:107D2200E3F760005BF0E4F760005FF0E1F760000A
:107D320063F0E2F720EE05F01350D9261450DA2250
:107D4200DF503701E56F20EE06F01350D9261450AC
:107D5200DA22DF50E66F20EE07F01350D9261450D6
:107D6200DA22DF50E76F20EE08F01350D9261450C4
:107D7200DA22DF50E86F20EE09F01350D9261450B2
:107D8200DA22DF50E96F20EE0AF01350D9261450A0
:107D9200DA22DF50EA6F20EE0BF01350D92614508E
:107DA200DA22DF50EB6F20EE0CF01350D92614507C
:107DB200DA22DF50EC6F20EE0DF01350D92614506A
:107DC200DA22DF50ED6FE087FDEF3FF0D0B7ECEF46
:107DD2003EF0EEEF3EF072EF3FF020EE01F0135076
:107DE200D9261450DA226F0078FF01F06F0078FF75
:107DF20002F06F0078FF03F06F0078FF04F060007C
:107E02004FF0D9FF600053F0DAFFDF50056E150E18
:107E1200066E000E076E160E086E000E096E170E25
:107E22000A6E000E0B6E180E0C6E000E0D6E87ECB5
:107E32003DF0600057F0D3F760005BF0D4F76000CC
:107E42005FF0D1F7600063F0D2F720EE05F0135037
:107E5200D9261450DA22DF503701D56F20EE06F012
:107E62001350D9261450DA22DF50D66F20EE07F0D5
:107E72001350D9261450DA22DF50D76F20EE08F0C3
:107E82001350D9261450DA22DF50D86F20EE09F0B1
:107E92001350D9261450DA22DF50D96F20EE0AF09F
:107EA2001350D9261450DA22DF50DA6F20EE0BF08D
:107EB2001350D9261450DA22DF50DB6F20EE0CF07B
:107EC2001350D9261450DA22DF50DC6F20EE0DF069
:107ED2001350D9261450DA22DF50DD6FD087E5EF38
:107EE2003EF0C0B777EF3FF079EF3FF0FDEF3FF0A4
:107EF20020EE01F01350D9261450DA226F0078FFD9
:107F020001F06F0078FF02F06F0078FF03F06F005E
:107F120078FF04F060004FF0D9FF600053F0DAFF01
:107F2200DF50056E150E066E000E076E160E086EF9
:107F3200000E096E170E0A6E000E0B6E180E0C6EF6
:107F4200000E0D6E87EC3DF0600057F0C3F7600045
:107F52005BF0C4F760005FF0C1F7600063F0C2F746
:107F620020EE05F01350D9261450DA22DF503701E3
:107F7200C56F20EE06F01350D9261450DA22DF50D6
:107F8200C66F20EE07F01350D9261450DA22DF50C4
:107F9200C76F20EE08F01350D9261450DA22DF50B2
:107FA200C86F20EE09F01350D9261450DA22DF50A0
:107FB200C96F20EE0AF01350D9261450DA22DF508E
:107FC200CA6F20EE0BF01350D9261450DA22DF507C
:107FD200CB6F20EE0CF01350D9261450DA22DF506A
:107FE200CC6F20EE0DF01350D9261450DA22DF5058
:0E7FF200CD6FC087E5EF3EF01200EAEF3CF0E5
:020000040020DA
:10000000FF0FFF0FFF0FFF0FFF0FFF0FFF0FFF0F80
:020000040030CA
:0A000000FCFFF7FF9FFFFFFFFFFF6B
:00000001FF
