:04000000FEEF3FF0E0
:0400080027EF3CF0B2
:02001800FF00E7
:1077D2001200D29A120001C03BF002C03CF012002B
:1077E200600E3901D96F000EDB6F000EDD6F080EDF
:1077F200DF6F000EDE6F1200EAEC3BF039EC3CF07A
:1078020064EC3CF0F1EC3BF08FEC3CF018EC3DF01A
:1078120012003C6A3B6A080ED56E000ED66E000E50
:10782200D76E000EF86E0001BDEF3CF002D824EFD7
:107832003CF00500FA6E3B50FD6E3C50FE6EF85077
:10784200FF6EFA5012003901A59D1200390195AD63
:107852002DEF3CF02FEF3CF038EF3CF0A5AD34EFCC
:107862003CF036EF3CF038EF3CF017EC3CF0110006
:10787200000E3901C06F000EC16F000EC26F000E04
:10788200C36F000EC46F000EC56F000EC66F000EF0
:10789200C76F1200056E600017F0F1FE3E01F88F0F
:1078A200F89DF881F8B158EF3CF05AEF3CF053EFF5
:1078B2003CF0F051046E036AEF510324016E000E96
:1078C2000420026E1200000EBA6E000EBB6E000E95
:1078D200BC6EC268EF0EC36EC468F70E3A01606FE9
:1078E200770E506F4069000E816F000E516F000ECF
:1078F200416F000E616F000E426F000E526F000E5C
:10790200626F436953696369446954696469080E23
:10791200846F0B0EED6F330E0C6F1200000E3E01E2
:10792200DE6F000EDF6F000EE06F000EE16F000EE3
:10793200E46F000EE56F000EEA6F000EEC6F000EB2
:10794200F16F000EF36F000EF46F000EF56F000E74
:10795200F66F000EF76F000EF96F000EFA6F000E51
:10796200FB6F000EFC6F000EFD6F000EFE6F310EFE
:10797200FF6F840EF86F1200FDEC3BF0000E2D6ECF
:10798200870E2E6E030E2F6E000E306E000E316EBD
:10799200020E326E000E1F6ED10E206E000E216E90
:1079A200000E226E000E236E010E246E010E256E55
:1079B200000E1C6E100E4BEC3CF001C01DF002C01C
:1079C2001EF01E50336E1DC034F02D0E136E000ECD
:1079D200146E53EC3EF01C50D8A4F2EF3CF0F4EFDE
:1079E2003CF008EF3DF0000ECCB6010E1B6E1B50B2
:1079F200D8B4FEEF3CF000EF3DF008EF3DF01F0E73
:107A0200136E000E146E53EC3EF0010E1C6E290E26
:107A12001A6E960E196E7F0EE82EFED7192EFCD71F
:107A22001A2EFAD700F0DBEF3CF0FEEF3FF0800EAB
:107A32008F6E8E50E00B800AD8A422EF3DF024EF27
:107A42003DF01AEF3DF0000E916E000E3701006F0F
:107A5200000EBA6F000EBB6F000EB86F000EB96F4A
:107A6200000EBE6F000EBF6F000EBC6F000EBD6F2A
:107A7200000EA26F000EA36F000EA06F000EA16F8A
:107A8200000EA66F000EA76F000EA46F000EA56F6A
:107A9200000EAA6F000EAB6F000EA86F000EA96F4A
:107AA200000EAE6F000EAF6F000EAC6F000EAD6F2A
:107AB200000EB26F000EB36F000EB06F000EB16F0A
:107AC200000EB66F000EB76F000EB46F000EB56FEA
:107AD2001F0E036F980E046F010E056FD20E016E1A
:107AE200770E026EECEC3BF03901A59D958D000EF0
:107AF2008F6E6F0038FE03F0E00E0316D8A484EFF9
:107B02003DF086EF3DF07AEF3DF01200020E0518CF
:107B1200D8A48EEF3DF090EF3DF01EEF3EF06000F6
:107B220023F0D9FF600027F0DAFF600007F0DFFFE3
:107B320001C00EF002C00FF003C010F004C011F03B
:107B42000FC00EF010C00FF011C010F0116A0EC07D
:107B520001F00FC002F010C003F011C004F0600089
:107B62001BF0D9FF60001FF0DAFF600007F0DFFFB3
:107B720001C00EF002C00FF003C010F004C011F0FB
:107B82000FC00EF010C00FF011C010F0116A0EC03D
:107B920001F00FC002F010C003F011C004F0015058
:107BA200030B126E01C00EF002C00FF003C010F002
:107BB20004C011F0030ED8900E360F36103611366F
:107BC200E82EDCEF3DF00EC001F00FC002F010C055
:107BD20003F011C004F00150E00B1224126E125097
:107BE200080F126E1250EB0B600033F0D9FF6000E9
:107BF20037F0DAFFDF6E01C00EF002C00FF003C0F3
:107C020010F004C011F00FC00EF010C00FF011C040
:107C120010F0116A0EC001F00FC002F010C003F0A4
:107C220011C004F060002BF0D9FF60002FF0DAFFE2
:107C3200600007F0DFFF52EF3EF060001BF0D9FF5B
:107C420060001FF0DAFF000EDF6E600023F0D9FF44
:107C5200600027F0DAFF000EDF6E01C00EF002C0F6
:107C62000FF003C010F004C011F0050ED8900E36CC
:107C72000F3610361136E82E37EF3EF00EC001F007
:107C82000FC002F010C003F011C004F0600033F026
:107C9200D9FF600037F0DAFF600007F0DFFFFCEF8A
:107CA2003DF01200000E156E000E166E000E176EDD
:107CB200000E186E3701E0B761EF3EF063EF3EF061
:107CC200E7EF3EF020EE01F01350D9261450DA22ED
:107CD2006F0078FF01F06F0078FF02F06F0078FF0D
:107CE20003F06F0078FF04F060004FF0D9FF6000EE
:107CF20053F0DAFFDF50056E150E066E000E076EAA
:107D0200160E086E000E096E170E0A6E000E0B6E2E
:107D1200180E0C6E000E0D6E87EC3DF0600057F0F1
:107D2200E3F760005BF0E4F760005FF0E1F760000A
:107D320063F0E2F720EE05F01350D9261450DA2250
:107D4200DF503701E56F20EE06F01350D9261450AC
:107D5200DA22DF50E66F20EE07F01350D9261450D6
:107D6200DA22DF50E76F20EE08F01350D9261450C4
:107D7200DA22DF50E86F20EE09F01350D9261450B2
:107D8200DA22DF50E96F20EE0AF01350D9261450A0
:107D9200DA22DF50EA6F20EE0BF01350D92614508E
:107DA200DA22DF50EB6F20EE0CF01350D92614507C
:107DB200DA22DF50EC6F20EE0DF01350D92614506A
:107DC200DA22DF50ED6FE087FDEF3FF0D0B7ECEF46
:107DD2003EF0EEEF3EF072EF3FF020EE01F0135076
:107DE200D9261450DA226F0078FF01F06F0078FF75
:107DF20002F06F0078FF03F06F0078FF04F060007C
:107E02004FF0D9FF600053F0DAFFDF50056E150E18
:107E1200066E000E076E160E086E000E096E170E25
:107E22000A6E000E0B6E180E0C6E000E0D6E87ECB5
:107E32003DF0600057F0D3F760005BF0D4F76000CC
:107E42005FF0D1F7600063F0D2F720EE05F0135037
:107E5200D9261450DA22DF503701D56F20EE06F012
:107E62001350D9261450DA22DF50D66F20EE07F0D5
:107E72001350D9261450DA22DF50D76F20EE08F0C3
:107E82001350D9261450DA22DF50D86F20EE09F0B1
:107E92001350D9261450DA22DF50D96F20EE0AF09F
:107EA2001350D9261450DA22DF50DA6F20EE0BF08D
:107EB2001350D9261450DA22DF50DB6F20EE0CF07B
:107EC2001350D9261450DA22DF50DC6F20EE0DF069
:107ED2001350D9261450DA22DF50DD6FD087E5EF38
:107EE2003EF0C0B777EF3FF079EF3FF0FDEF3FF0A4
:107EF20020EE01F01350D9261450DA226F0078FFD9
:107F020001F06F0078FF02F06F0078FF03F06F005E
:107F120078FF04F060004FF0D9FF600053F0DAFF01
:107F2200DF50056E150E066E000E076E160E086EF9
:107F3200000E096E170E0A6E000E0B6E180E0C6EF6
:107F4200000E0D6E87EC3DF0600057F0C3F7600045
:107F52005BF0C4F760005FF0C1F7600063F0C2F746
:107F620020EE05F01350D9261450DA22DF503701E3
:107F7200C56F20EE06F01350D9261450DA22DF50D6
:107F8200C66F20EE07F01350D9261450DA22DF50C4
:107F9200C76F20EE08F01350D9261450DA22DF50B2
:107FA200C86F20EE09F01350D9261450DA22DF50A0
:107FB200C96F20EE0AF01350D9261450DA22DF508E
:107FC200CA6F20EE0BF01350D9261450DA22DF507C
:107FD200CB6F20EE0CF01350D9261450DA22DF506A
:107FE200CC6F20EE0DF01350D9261450DA22DF5058
:0E7FF200CD6FC087E5EF3EF012000AEF3CF0C5
:020000040020DA
:10000000FF0FFF0FFF0FFF0FFF0FFF0FFF0FFF0F80
:020000040030CA
:0A0000008CFFF7FF9FFFFFFFFFFFDB
:00000001FF
